{
  "contractName": "Avatars",
  "abi": [
    {
      "inputs": [
        {
          "internalType": "string",
          "name": "name",
          "type": "string"
        },
        {
          "internalType": "string",
          "name": "symbol",
          "type": "string"
        },
        {
          "internalType": "uint256",
          "name": "_baseShare",
          "type": "uint256"
        },
        {
          "internalType": "uint256",
          "name": "_minShare",
          "type": "uint256"
        },
        {
          "internalType": "uint256",
          "name": "_totalNFTs",
          "type": "uint256"
        }
      ],
      "stateMutability": "nonpayable",
      "type": "constructor"
    },
    {
      "anonymous": false,
      "inputs": [
        {
          "indexed": true,
          "internalType": "address",
          "name": "owner",
          "type": "address"
        },
        {
          "indexed": true,
          "internalType": "address",
          "name": "approved",
          "type": "address"
        },
        {
          "indexed": true,
          "internalType": "uint256",
          "name": "tokenId",
          "type": "uint256"
        }
      ],
      "name": "Approval",
      "type": "event"
    },
    {
      "anonymous": false,
      "inputs": [
        {
          "indexed": true,
          "internalType": "address",
          "name": "owner",
          "type": "address"
        },
        {
          "indexed": true,
          "internalType": "address",
          "name": "operator",
          "type": "address"
        },
        {
          "indexed": false,
          "internalType": "bool",
          "name": "approved",
          "type": "bool"
        }
      ],
      "name": "ApprovalForAll",
      "type": "event"
    },
    {
      "anonymous": false,
      "inputs": [
        {
          "indexed": false,
          "internalType": "uint256",
          "name": "tokenID",
          "type": "uint256"
        },
        {
          "indexed": false,
          "internalType": "uint256",
          "name": "share",
          "type": "uint256"
        },
        {
          "indexed": false,
          "internalType": "address",
          "name": "recipient",
          "type": "address"
        }
      ],
      "name": "MintToken",
      "type": "event"
    },
    {
      "anonymous": false,
      "inputs": [
        {
          "indexed": true,
          "internalType": "address",
          "name": "from",
          "type": "address"
        },
        {
          "indexed": true,
          "internalType": "address",
          "name": "to",
          "type": "address"
        },
        {
          "indexed": true,
          "internalType": "uint256",
          "name": "tokenId",
          "type": "uint256"
        }
      ],
      "name": "Transfer",
      "type": "event"
    },
    {
      "inputs": [
        {
          "internalType": "address",
          "name": "to",
          "type": "address"
        },
        {
          "internalType": "uint256",
          "name": "tokenId",
          "type": "uint256"
        }
      ],
      "name": "approve",
      "outputs": [],
      "stateMutability": "nonpayable",
      "type": "function"
    },
    {
      "inputs": [
        {
          "internalType": "uint256",
          "name": "",
          "type": "uint256"
        }
      ],
      "name": "avatars",
      "outputs": [
        {
          "internalType": "uint256",
          "name": "tokenShare",
          "type": "uint256"
        },
        {
          "internalType": "uint256",
          "name": "lastClaimPrice",
          "type": "uint256"
        }
      ],
      "stateMutability": "view",
      "type": "function",
      "constant": true
    },
    {
      "inputs": [
        {
          "internalType": "address",
          "name": "owner",
          "type": "address"
        }
      ],
      "name": "balanceOf",
      "outputs": [
        {
          "internalType": "uint256",
          "name": "",
          "type": "uint256"
        }
      ],
      "stateMutability": "view",
      "type": "function",
      "constant": true
    },
    {
      "inputs": [],
      "name": "baseShare",
      "outputs": [
        {
          "internalType": "uint256",
          "name": "",
          "type": "uint256"
        }
      ],
      "stateMutability": "view",
      "type": "function",
      "constant": true
    },
    {
      "inputs": [
        {
          "internalType": "uint256",
          "name": "tokenId",
          "type": "uint256"
        }
      ],
      "name": "getApproved",
      "outputs": [
        {
          "internalType": "address",
          "name": "",
          "type": "address"
        }
      ],
      "stateMutability": "view",
      "type": "function",
      "constant": true
    },
    {
      "inputs": [
        {
          "internalType": "address",
          "name": "owner",
          "type": "address"
        },
        {
          "internalType": "address",
          "name": "operator",
          "type": "address"
        }
      ],
      "name": "isApprovedForAll",
      "outputs": [
        {
          "internalType": "bool",
          "name": "",
          "type": "bool"
        }
      ],
      "stateMutability": "view",
      "type": "function",
      "constant": true
    },
    {
      "inputs": [],
      "name": "name",
      "outputs": [
        {
          "internalType": "string",
          "name": "",
          "type": "string"
        }
      ],
      "stateMutability": "view",
      "type": "function",
      "constant": true
    },
    {
      "inputs": [
        {
          "internalType": "uint256",
          "name": "tokenId",
          "type": "uint256"
        }
      ],
      "name": "ownerOf",
      "outputs": [
        {
          "internalType": "address",
          "name": "",
          "type": "address"
        }
      ],
      "stateMutability": "view",
      "type": "function",
      "constant": true
    },
    {
      "inputs": [
        {
          "internalType": "address",
          "name": "from",
          "type": "address"
        },
        {
          "internalType": "address",
          "name": "to",
          "type": "address"
        },
        {
          "internalType": "uint256",
          "name": "tokenId",
          "type": "uint256"
        }
      ],
      "name": "safeTransferFrom",
      "outputs": [],
      "stateMutability": "nonpayable",
      "type": "function"
    },
    {
      "inputs": [
        {
          "internalType": "address",
          "name": "from",
          "type": "address"
        },
        {
          "internalType": "address",
          "name": "to",
          "type": "address"
        },
        {
          "internalType": "uint256",
          "name": "tokenId",
          "type": "uint256"
        },
        {
          "internalType": "bytes",
          "name": "_data",
          "type": "bytes"
        }
      ],
      "name": "safeTransferFrom",
      "outputs": [],
      "stateMutability": "nonpayable",
      "type": "function"
    },
    {
      "inputs": [
        {
          "internalType": "address",
          "name": "operator",
          "type": "address"
        },
        {
          "internalType": "bool",
          "name": "approved",
          "type": "bool"
        }
      ],
      "name": "setApprovalForAll",
      "outputs": [],
      "stateMutability": "nonpayable",
      "type": "function"
    },
    {
      "inputs": [
        {
          "internalType": "bytes4",
          "name": "interfaceId",
          "type": "bytes4"
        }
      ],
      "name": "supportsInterface",
      "outputs": [
        {
          "internalType": "bool",
          "name": "",
          "type": "bool"
        }
      ],
      "stateMutability": "view",
      "type": "function",
      "constant": true
    },
    {
      "inputs": [],
      "name": "symbol",
      "outputs": [
        {
          "internalType": "string",
          "name": "",
          "type": "string"
        }
      ],
      "stateMutability": "view",
      "type": "function",
      "constant": true
    },
    {
      "inputs": [
        {
          "internalType": "uint256",
          "name": "index",
          "type": "uint256"
        }
      ],
      "name": "tokenByIndex",
      "outputs": [
        {
          "internalType": "uint256",
          "name": "",
          "type": "uint256"
        }
      ],
      "stateMutability": "view",
      "type": "function",
      "constant": true
    },
    {
      "inputs": [
        {
          "internalType": "address",
          "name": "owner",
          "type": "address"
        },
        {
          "internalType": "uint256",
          "name": "index",
          "type": "uint256"
        }
      ],
      "name": "tokenOfOwnerByIndex",
      "outputs": [
        {
          "internalType": "uint256",
          "name": "",
          "type": "uint256"
        }
      ],
      "stateMutability": "view",
      "type": "function",
      "constant": true
    },
    {
      "inputs": [
        {
          "internalType": "uint256",
          "name": "tokenId",
          "type": "uint256"
        }
      ],
      "name": "tokenURI",
      "outputs": [
        {
          "internalType": "string",
          "name": "",
          "type": "string"
        }
      ],
      "stateMutability": "view",
      "type": "function",
      "constant": true
    },
    {
      "inputs": [],
      "name": "totalRoyalties",
      "outputs": [
        {
          "internalType": "uint256",
          "name": "",
          "type": "uint256"
        }
      ],
      "stateMutability": "view",
      "type": "function",
      "constant": true
    },
    {
      "inputs": [],
      "name": "totalSupply",
      "outputs": [
        {
          "internalType": "uint256",
          "name": "",
          "type": "uint256"
        }
      ],
      "stateMutability": "view",
      "type": "function",
      "constant": true
    },
    {
      "inputs": [
        {
          "internalType": "address",
          "name": "from",
          "type": "address"
        },
        {
          "internalType": "address",
          "name": "to",
          "type": "address"
        },
        {
          "internalType": "uint256",
          "name": "tokenId",
          "type": "uint256"
        }
      ],
      "name": "transferFrom",
      "outputs": [],
      "stateMutability": "nonpayable",
      "type": "function"
    },
    {
      "stateMutability": "payable",
      "type": "receive",
      "payable": true
    },
    {
      "inputs": [
        {
          "internalType": "uint256",
          "name": "tokenID",
          "type": "uint256"
        }
      ],
      "name": "claim",
      "outputs": [],
      "stateMutability": "nonpayable",
      "type": "function"
    },
    {
      "inputs": [
        {
          "internalType": "uint256[]",
          "name": "tokenIDs",
          "type": "uint256[]"
        }
      ],
      "name": "claimMulti",
      "outputs": [],
      "stateMutability": "nonpayable",
      "type": "function"
    },
    {
      "inputs": [],
      "name": "buy",
      "outputs": [
        {
          "internalType": "uint256",
          "name": "",
          "type": "uint256"
        }
      ],
      "stateMutability": "payable",
      "type": "function",
      "payable": true
    },
    {
      "inputs": [
        {
          "internalType": "uint256",
          "name": "amount",
          "type": "uint256"
        }
      ],
      "name": "buyMulti",
      "outputs": [],
      "stateMutability": "payable",
      "type": "function",
      "payable": true
    },
    {
      "inputs": [
        {
          "internalType": "uint256",
          "name": "tokenID",
          "type": "uint256"
        }
      ],
      "name": "pendingRoyalties",
      "outputs": [
        {
          "internalType": "uint256",
          "name": "",
          "type": "uint256"
        }
      ],
      "stateMutability": "view",
      "type": "function",
      "constant": true
    }
  ],
  "bytecode": "0x60806040523480156200001157600080fd5b5060405162002a7338038062002a7383398101604081905262000034916200099b565b8451859085906200004d90600090602085019062000831565b5080516200006390600190602084019062000831565b505050600a839055600b819055600c8290556200008033620000bc565b506200008c33620000bc565b506200009833620000bc565b50620000a433620000bc565b50620000b033620000bc565b50505050505062000b73565b600080620000c960085490565b620000d690600162000a76565b9050600b548110620001245760405162461bcd60e51b815260206004820152601260248201527113585e081cdd5c1c1b1e481c995858da195960721b60448201526064015b60405180910390fd5b620001308382620001b1565b600a54604080518082018252828152600d5460208083019182526000868152600e825284902092518355905160019092019190915581518481529081018390526001600160a01b0386168183015290517fb4a4751ef6a44118d02c7f8772a09a847f35ae4293a6c73ffc21039b806356829181900360600190a19392505050565b620001d3828260405180602001604052806000815250620001d760201b60201c565b5050565b620001e383836200024f565b620001f26000848484620003a5565b6200024a5760405162461bcd60e51b8152602060048201526032602482015260008051602062002a5383398151915260448201527131b2b4bb32b91034b6b83632b6b2b73a32b960711b60648201526084016200011b565b505050565b6001600160a01b038216620002a75760405162461bcd60e51b815260206004820181905260248201527f4552433732313a206d696e7420746f20746865207a65726f206164647265737360448201526064016200011b565b6000818152600260205260409020546001600160a01b0316156200030e5760405162461bcd60e51b815260206004820152601c60248201527f4552433732313a20746f6b656e20616c7265616479206d696e7465640000000060448201526064016200011b565b6200031c600083836200050e565b6001600160a01b03821660009081526003602052604081208054600192906200034790849062000a76565b909155505060008181526002602052604080822080546001600160a01b0319166001600160a01b03861690811790915590518392907fddf252ad1be2c89b69c2b068fc378daa952ba7f163c4a11628f55a4df523b3ef908290a45050565b6000620003c6846001600160a01b0316620005ea60201b62000e3f1760201c565b156200050257604051630a85bd0160e11b81526001600160a01b0385169063150b7a02906200040090339089908890889060040162000a20565b602060405180830381600087803b1580156200041b57600080fd5b505af19250505080156200044e575060408051601f3d908101601f191682019092526200044b9181019062000968565b60015b620004e7573d8080156200047f576040519150601f19603f3d011682016040523d82523d6000602084013e62000484565b606091505b508051620004df5760405162461bcd60e51b8152602060048201526032602482015260008051602062002a5383398151915260448201527131b2b4bb32b91034b6b83632b6b2b73a32b960711b60648201526084016200011b565b805181602001fd5b6001600160e01b031916630a85bd0160e11b14905062000506565b5060015b949350505050565b620005268383836200024a60201b6200071c1760201c565b6001600160a01b03831662000584576200057e81600880546000838152600960205260408120829055600182018355919091527ff3f7a9fe364faab93b216da50a3214154f22a0a2b415b23a84c8169e8b636ee30155565b620005aa565b816001600160a01b0316836001600160a01b031614620005aa57620005aa8382620005f0565b6001600160a01b038216620005c4576200024a816200069d565b826001600160a01b0316826001600160a01b0316146200024a576200024a828262000757565b3b151590565b600060016200060a84620007a860201b62000b021760201c565b62000616919062000a91565b6000838152600760205260409020549091508082146200066a576001600160a01b03841660009081526006602090815260408083208584528252808320548484528184208190558352600790915290208190555b5060009182526007602090815260408084208490556001600160a01b039094168352600681528383209183525290812055565b600854600090620006b19060019062000a91565b60008381526009602052604081205460088054939450909284908110620006dc57620006dc62000b47565b90600052602060002001549050806008838154811062000700576200070062000b47565b60009182526020808320909101929092558281526009909152604080822084905585825281205560088054806200073b576200073b62000b31565b6001900381819060005260206000200160009055905550505050565b60006200076f83620007a860201b62000b021760201c565b6001600160a01b039093166000908152600660209081526040808320868452825280832085905593825260079052919091209190915550565b60006001600160a01b038216620008155760405162461bcd60e51b815260206004820152602a60248201527f4552433732313a2062616c616e636520717565727920666f7220746865207a65604482015269726f206164647265737360b01b60648201526084016200011b565b506001600160a01b031660009081526003602052604090205490565b8280546200083f9062000ade565b90600052602060002090601f016020900481019282620008635760008555620008ae565b82601f106200087e57805160ff1916838001178555620008ae565b82800160010185558215620008ae579182015b82811115620008ae57825182559160200191906001019062000891565b50620008bc929150620008c0565b5090565b5b80821115620008bc5760008155600101620008c1565b600082601f830112620008e957600080fd5b81516001600160401b038082111562000906576200090662000b5d565b604051601f8301601f19908116603f0116810190828211818310171562000931576200093162000b5d565b816040528381528660208588010111156200094b57600080fd5b6200095e84602083016020890162000aab565b9695505050505050565b6000602082840312156200097b57600080fd5b81516001600160e01b0319811681146200099457600080fd5b9392505050565b600080600080600060a08688031215620009b457600080fd5b85516001600160401b0380821115620009cc57600080fd5b620009da89838a01620008d7565b96506020880151915080821115620009f157600080fd5b5062000a0088828901620008d7565b60408801516060890151608090990151979a919950979695509350505050565b600060018060a01b03808716835280861660208401525083604083015260806060830152825180608084015262000a5f8160a085016020870162000aab565b601f01601f19169190910160a00195945050505050565b6000821982111562000a8c5762000a8c62000b1b565b500190565b60008282101562000aa65762000aa662000b1b565b500390565b60005b8381101562000ac857818101518382015260200162000aae565b8381111562000ad8576000848401525b50505050565b600181811c9082168062000af357607f821691505b6020821081141562000b1557634e487b7160e01b600052602260045260246000fd5b50919050565b634e487b7160e01b600052601160045260246000fd5b634e487b7160e01b600052603160045260246000fd5b634e487b7160e01b600052603260045260246000fd5b634e487b7160e01b600052604160045260246000fd5b611ed08062000b836000396000f3fe60806040526004361061014f5760003560e01c80636352211e116100b6578063a6f2ae3a1161006f578063a6f2ae3a146103e3578063b88d4fde146103eb578063c87b56dd1461040b578063e2fb10701461042b578063e4717f6a1461044b578063e985e9c51461046b57600080fd5b80636352211e1461030f57806370a082311461032f578063834d5fac1461034f57806386d026081461039857806395d89b41146103ae578063a22cb465146103c357600080fd5b806323b872dd1161010857806323b872dd1461025c5780632f745c591461027c578063379607f51461029c57806342842e0e146102bc578063429c8eb9146102dc5780634f6ccce7146102ef57600080fd5b806301ffc9a71461017257806306fdde03146101a7578063081812fc146101c957806309110a2d14610201578063095ea7b31461022557806318160ddd1461024757600080fd5b3661016d5734600d60008282546101669190611d1b565b9091555050005b600080fd5b34801561017e57600080fd5b5061019261018d366004611b49565b6104b4565b60405190151581526020015b60405180910390f35b3480156101b357600080fd5b506101bc6104df565b60405161019e9190611c34565b3480156101d557600080fd5b506101e96101e4366004611b83565b610571565b6040516001600160a01b03909116815260200161019e565b34801561020d57600080fd5b50610217600a5481565b60405190815260200161019e565b34801561023157600080fd5b50610245610240366004611a72565b61060b565b005b34801561025357600080fd5b50600854610217565b34801561026857600080fd5b5061024561027736600461193a565b610721565b34801561028857600080fd5b50610217610297366004611a72565b610752565b3480156102a857600080fd5b506102456102b7366004611b83565b6107e8565b3480156102c857600080fd5b506102456102d736600461193a565b61091c565b6102456102ea366004611b83565b610937565b3480156102fb57600080fd5b5061021761030a366004611b83565b6109f8565b34801561031b57600080fd5b506101e961032a366004611b83565b610a8b565b34801561033b57600080fd5b5061021761034a3660046118ec565b610b02565b34801561035b57600080fd5b5061038361036a366004611b83565b600e602052600090815260409020805460019091015482565b6040805192835260208301919091520161019e565b3480156103a457600080fd5b50610217600d5481565b3480156103ba57600080fd5b506101bc610b89565b3480156103cf57600080fd5b506102456103de366004611a36565b610b98565b610217610c5d565b3480156103f757600080fd5b50610245610406366004611976565b610ca0565b34801561041757600080fd5b506101bc610426366004611b83565b610cd8565b34801561043757600080fd5b50610217610446366004611b83565b610dc0565b34801561045757600080fd5b50610245610466366004611a9c565b610dff565b34801561047757600080fd5b50610192610486366004611907565b6001600160a01b03918216600090815260056020908152604080832093909416825291909152205460ff1690565b60006001600160e01b0319821663780e9d6360e01b14806104d957506104d982610e45565b92915050565b6060600080546104ee90611da9565b80601f016020809104026020016040519081016040528092919081815260200182805461051a90611da9565b80156105675780601f1061053c57610100808354040283529160200191610567565b820191906000526020600020905b81548152906001019060200180831161054a57829003601f168201915b5050505050905090565b6000818152600260205260408120546001600160a01b03166105ef5760405162461bcd60e51b815260206004820152602c60248201527f4552433732313a20617070726f76656420717565727920666f72206e6f6e657860448201526b34b9ba32b73a103a37b5b2b760a11b60648201526084015b60405180910390fd5b506000908152600460205260409020546001600160a01b031690565b600061061682610a8b565b9050806001600160a01b0316836001600160a01b031614156106845760405162461bcd60e51b815260206004820152602160248201527f4552433732313a20617070726f76616c20746f2063757272656e74206f776e656044820152603960f91b60648201526084016105e6565b336001600160a01b03821614806106a057506106a08133610486565b6107125760405162461bcd60e51b815260206004820152603860248201527f4552433732313a20617070726f76652063616c6c6572206973206e6f74206f7760448201527f6e6572206e6f7220617070726f76656420666f7220616c6c000000000000000060648201526084016105e6565b61071c8383610e95565b505050565b61072b3382610f03565b6107475760405162461bcd60e51b81526004016105e690611c99565b61071c838383610ff6565b600061075d83610b02565b82106107bf5760405162461bcd60e51b815260206004820152602b60248201527f455243373231456e756d657261626c653a206f776e657220696e646578206f7560448201526a74206f6620626f756e647360a81b60648201526084016105e6565b506001600160a01b03919091166000908152600660209081526040808320938352929052205490565b336107f282610a8b565b6001600160a01b03161461083c5760405162461bcd60e51b815260206004820152601160248201527026bab9ba103132903a34329037bbb732b960791b60448201526064016105e6565b6000818152600e6020526040902060010154600d5481106108925760405162461bcd60e51b815260206004820152601060248201526f4e6f7468696e6720746f20636c61696d60801b60448201526064016105e6565b6000828152600e6020526040812054600d546108ce9168056bc75e2d63100000916108c891906108c290876111a1565b906111ad565b906111b9565b604051909150339082156108fc029083906000818181858888f193505050501580156108fe573d6000803e3d6000fd5b5050600d546000928352600e60205260409092206001019190915550565b61071c83838360405180602001604052806000815250610ca0565b60058111156109885760405162461bcd60e51b815260206004820152601960248201527f43616e206f6e6c79206d696e74203520617420612074696d650000000000000060448201526064016105e6565b61099a670494654067e10000826111ad565b34116109a557600080fd5b6109b666afdbfcdc61c000826111ad565b600d60008282546109c79190611d1b565b90915550600090505b818110156109f4576109e1336111c5565b50806109ec81611de4565b9150506109d0565b5050565b6000610a0360085490565b8210610a665760405162461bcd60e51b815260206004820152602c60248201527f455243373231456e756d657261626c653a20676c6f62616c20696e646578206f60448201526b7574206f6620626f756e647360a01b60648201526084016105e6565b60088281548110610a7957610a79611e55565b90600052602060002001549050919050565b6000818152600260205260408120546001600160a01b0316806104d95760405162461bcd60e51b815260206004820152602960248201527f4552433732313a206f776e657220717565727920666f72206e6f6e657869737460448201526832b73a103a37b5b2b760b91b60648201526084016105e6565b60006001600160a01b038216610b6d5760405162461bcd60e51b815260206004820152602a60248201527f4552433732313a2062616c616e636520717565727920666f7220746865207a65604482015269726f206164647265737360b01b60648201526084016105e6565b506001600160a01b031660009081526003602052604090205490565b6060600180546104ee90611da9565b6001600160a01b038216331415610bf15760405162461bcd60e51b815260206004820152601960248201527f4552433732313a20617070726f766520746f2063616c6c65720000000000000060448201526064016105e6565b3360008181526005602090815260408083206001600160a01b03871680855290835292819020805460ff191686151590811790915590519081529192917f17307eab39ab6107e8899845ad3d59bd9653f200f220920489ca2b5937696c31910160405180910390a35050565b6000670494654067e100003411610c7357600080fd5b66afdbfcdc61c000600d6000828254610c8c9190611d1b565b90915550610c9b9050336111c5565b905090565b610caa3383610f03565b610cc65760405162461bcd60e51b81526004016105e690611c99565b610cd2848484846112af565b50505050565b6000818152600260205260409020546060906001600160a01b0316610d575760405162461bcd60e51b815260206004820152602f60248201527f4552433732314d657461646174613a2055524920717565727920666f72206e6f60448201526e3732bc34b9ba32b73a103a37b5b2b760891b60648201526084016105e6565b6000610d6e60408051602081019091526000815290565b90506000815111610d8e5760405180602001604052806000815250610db9565b80610d98846112e2565b604051602001610da9929190611bc8565b6040516020818303038152906040525b9392505050565b6000818152600e6020526040812060018101549054600d548391610df79168056bc75e2d63100000916108c8916108c290876111a1565b949350505050565b60005b81518110156109f457610e2d828281518110610e2057610e20611e55565b60200260200101516107e8565b80610e3781611de4565b915050610e02565b3b151590565b60006001600160e01b031982166380ac58cd60e01b1480610e7657506001600160e01b03198216635b5e139f60e01b145b806104d957506301ffc9a760e01b6001600160e01b03198316146104d9565b600081815260046020526040902080546001600160a01b0319166001600160a01b0384169081179091558190610eca82610a8b565b6001600160a01b03167f8c5be1e5ebec7d5bd14f71427d1e84f3dd0314c0f7b2291e5b200ac8c7c3b92560405160405180910390a45050565b6000818152600260205260408120546001600160a01b0316610f7c5760405162461bcd60e51b815260206004820152602c60248201527f4552433732313a206f70657261746f7220717565727920666f72206e6f6e657860448201526b34b9ba32b73a103a37b5b2b760a11b60648201526084016105e6565b6000610f8783610a8b565b9050806001600160a01b0316846001600160a01b03161480610fc25750836001600160a01b0316610fb784610571565b6001600160a01b0316145b80610df757506001600160a01b0380821660009081526005602090815260408083209388168352929052205460ff16610df7565b826001600160a01b031661100982610a8b565b6001600160a01b0316146110715760405162461bcd60e51b815260206004820152602960248201527f4552433732313a207472616e73666572206f6620746f6b656e2074686174206960448201526839903737ba1037bbb760b91b60648201526084016105e6565b6001600160a01b0382166110d35760405162461bcd60e51b8152602060048201526024808201527f4552433732313a207472616e7366657220746f20746865207a65726f206164646044820152637265737360e01b60648201526084016105e6565b6110de8383836113e0565b6110e9600082610e95565b6001600160a01b0383166000908152600360205260408120805460019290611112908490611d66565b90915550506001600160a01b0382166000908152600360205260408120805460019290611140908490611d1b565b909155505060008181526002602052604080822080546001600160a01b0319166001600160a01b0386811691821790925591518493918716917fddf252ad1be2c89b69c2b068fc378daa952ba7f163c4a11628f55a4df523b3ef91a4505050565b6000610db98284611d66565b6000610db98284611d47565b6000610db98284611d33565b6000806111d160085490565b6111dc906001611d1b565b9050600b5481106112245760405162461bcd60e51b815260206004820152601260248201527113585e081cdd5c1c1b1e481c995858da195960721b60448201526064016105e6565b61122e8382611498565b600a54604080518082018252828152600d5460208083019182526000868152600e825284902092518355905160019092019190915581518481529081018390526001600160a01b0386168183015290517fb4a4751ef6a44118d02c7f8772a09a847f35ae4293a6c73ffc21039b806356829181900360600190a19392505050565b6112ba848484610ff6565b6112c6848484846114b2565b610cd25760405162461bcd60e51b81526004016105e690611c47565b6060816113065750506040805180820190915260018152600360fc1b602082015290565b8160005b8115611330578061131a81611de4565b91506113299050600a83611d33565b915061130a565b60008167ffffffffffffffff81111561134b5761134b611e6b565b6040519080825280601f01601f191660200182016040528015611375576020820181803683370190505b5090505b8415610df75761138a600183611d66565b9150611397600a86611dff565b6113a2906030611d1b565b60f81b8183815181106113b7576113b7611e55565b60200101906001600160f81b031916908160001a9053506113d9600a86611d33565b9450611379565b6001600160a01b03831661143b5761143681600880546000838152600960205260408120829055600182018355919091527ff3f7a9fe364faab93b216da50a3214154f22a0a2b415b23a84c8169e8b636ee30155565b61145e565b816001600160a01b0316836001600160a01b03161461145e5761145e83826115bf565b6001600160a01b0382166114755761071c8161165c565b826001600160a01b0316826001600160a01b03161461071c5761071c828261170b565b6109f482826040518060200160405280600081525061174f565b60006001600160a01b0384163b156115b457604051630a85bd0160e11b81526001600160a01b0385169063150b7a02906114f6903390899088908890600401611bf7565b602060405180830381600087803b15801561151057600080fd5b505af1925050508015611540575060408051601f3d908101601f1916820190925261153d91810190611b66565b60015b61159a573d80801561156e576040519150601f19603f3d011682016040523d82523d6000602084013e611573565b606091505b5080516115925760405162461bcd60e51b81526004016105e690611c47565b805181602001fd5b6001600160e01b031916630a85bd0160e11b149050610df7565b506001949350505050565b600060016115cc84610b02565b6115d69190611d66565b600083815260076020526040902054909150808214611629576001600160a01b03841660009081526006602090815260408083208584528252808320548484528184208190558352600790915290208190555b5060009182526007602090815260408084208490556001600160a01b039094168352600681528383209183525290812055565b60085460009061166e90600190611d66565b6000838152600960205260408120546008805493945090928490811061169657611696611e55565b9060005260206000200154905080600883815481106116b7576116b7611e55565b60009182526020808320909101929092558281526009909152604080822084905585825281205560088054806116ef576116ef611e3f565b6001900381819060005260206000200160009055905550505050565b600061171683610b02565b6001600160a01b039093166000908152600660209081526040808320868452825280832085905593825260079052919091209190915550565b6117598383611782565b61176660008484846114b2565b61071c5760405162461bcd60e51b81526004016105e690611c47565b6001600160a01b0382166117d85760405162461bcd60e51b815260206004820181905260248201527f4552433732313a206d696e7420746f20746865207a65726f206164647265737360448201526064016105e6565b6000818152600260205260409020546001600160a01b03161561183d5760405162461bcd60e51b815260206004820152601c60248201527f4552433732313a20746f6b656e20616c7265616479206d696e7465640000000060448201526064016105e6565b611849600083836113e0565b6001600160a01b0382166000908152600360205260408120805460019290611872908490611d1b565b909155505060008181526002602052604080822080546001600160a01b0319166001600160a01b03861690811790915590518392907fddf252ad1be2c89b69c2b068fc378daa952ba7f163c4a11628f55a4df523b3ef908290a45050565b80356001600160a01b03811681146118e757600080fd5b919050565b6000602082840312156118fe57600080fd5b610db9826118d0565b6000806040838503121561191a57600080fd5b611923836118d0565b9150611931602084016118d0565b90509250929050565b60008060006060848603121561194f57600080fd5b611958846118d0565b9250611966602085016118d0565b9150604084013590509250925092565b6000806000806080858703121561198c57600080fd5b611995856118d0565b935060206119a48187016118d0565b935060408601359250606086013567ffffffffffffffff808211156119c857600080fd5b818801915088601f8301126119dc57600080fd5b8135818111156119ee576119ee611e6b565b611a00601f8201601f19168501611cea565b91508082528984828501011115611a1657600080fd5b808484018584013760008482840101525080935050505092959194509250565b60008060408385031215611a4957600080fd5b611a52836118d0565b915060208301358015158114611a6757600080fd5b809150509250929050565b60008060408385031215611a8557600080fd5b611a8e836118d0565b946020939093013593505050565b60006020808385031215611aaf57600080fd5b823567ffffffffffffffff80821115611ac757600080fd5b818501915085601f830112611adb57600080fd5b813581811115611aed57611aed611e6b565b8060051b9150611afe848301611cea565b8181528481019084860184860187018a1015611b1957600080fd5b600095505b83861015611b3c578035835260019590950194918601918601611b1e565b5098975050505050505050565b600060208284031215611b5b57600080fd5b8135610db981611e81565b600060208284031215611b7857600080fd5b8151610db981611e81565b600060208284031215611b9557600080fd5b5035919050565b60008151808452611bb4816020860160208601611d7d565b601f01601f19169290920160200192915050565b60008351611bda818460208801611d7d565b835190830190611bee818360208801611d7d565b01949350505050565b6001600160a01b0385811682528416602082015260408101839052608060608201819052600090611c2a90830184611b9c565b9695505050505050565b602081526000610db96020830184611b9c565b60208082526032908201527f4552433732313a207472616e7366657220746f206e6f6e20455243373231526560408201527131b2b4bb32b91034b6b83632b6b2b73a32b960711b606082015260800190565b60208082526031908201527f4552433732313a207472616e736665722063616c6c6572206973206e6f74206f6040820152701ddb995c881b9bdc88185c1c1c9bdd9959607a1b606082015260800190565b604051601f8201601f1916810167ffffffffffffffff81118282101715611d1357611d13611e6b565b604052919050565b60008219821115611d2e57611d2e611e13565b500190565b600082611d4257611d42611e29565b500490565b6000816000190483118215151615611d6157611d61611e13565b500290565b600082821015611d7857611d78611e13565b500390565b60005b83811015611d98578181015183820152602001611d80565b83811115610cd25750506000910152565b600181811c90821680611dbd57607f821691505b60208210811415611dde57634e487b7160e01b600052602260045260246000fd5b50919050565b6000600019821415611df857611df8611e13565b5060010190565b600082611e0e57611e0e611e29565b500690565b634e487b7160e01b600052601160045260246000fd5b634e487b7160e01b600052601260045260246000fd5b634e487b7160e01b600052603160045260246000fd5b634e487b7160e01b600052603260045260246000fd5b634e487b7160e01b600052604160045260246000fd5b6001600160e01b031981168114611e9757600080fd5b5056fea2646970667358221220384036aac1e9df06d10cde27dbac83ec5cf527477244fc72d056613fc70ba58e64736f6c634300080700334552433732313a207472616e7366657220746f206e6f6e204552433732315265",
  "immutableReferences": {},
  "source": "pragma solidity 0.8.7;\n\nimport '@openzeppelin/contracts/token/ERC721/extensions/ERC721Enumerable.sol';\nimport '@openzeppelin/contracts/utils/math/SafeMath.sol';\n\ncontract Avatars is ERC721Enumerable {\n    using SafeMath for uint256;\n    uint256 public baseShare;\n    uint256 private totalNFTs;\n    uint256 private minShare;\n    uint256 public totalRoyalties;\n    struct Avatar {\n        uint256 tokenShare;\n        uint256 lastClaimPrice;\n    }\n    mapping(uint256 => Avatar) public avatars;\n\n    event MintToken(uint256 tokenID, uint256 share, address recipient);\n\n    constructor(\n        string memory name,\n        string memory symbol,\n        uint256 _baseShare,\n        uint256 _minShare,\n        uint256 _totalNFTs\n    ) public ERC721(name, symbol) {\n        baseShare = _baseShare;\n        totalNFTs = _totalNFTs;\n        minShare = _minShare;\n        mint(msg.sender);\n        mint(msg.sender);\n        mint(msg.sender);\n        mint(msg.sender);\n        mint(msg.sender);\n    }\n\n    function mint(address _recipient) internal returns (uint256) {\n        uint256 newId = totalSupply() + 1;\n        require(newId < totalNFTs, 'Max supply reached');\n        _safeMint(_recipient, newId);\n        // uint256 percentage = newId.mul(1 ether).mul(100).div(totalNFTs);\n        // uint256 deductable = baseShare.mul(percentage).div(100 ether);\n        // uint256 share = baseShare.sub(deductable);\n        uint256 share = baseShare;\n        avatars[newId] = Avatar({tokenShare: share, lastClaimPrice: totalRoyalties});\n        emit MintToken(newId, share, _recipient);\n        return share;\n    }\n\n    function claim(uint256 tokenID) public {\n        require(ownerOf(tokenID) == msg.sender, 'Must be the owner');\n\n        uint256 lastClaim = avatars[tokenID].lastClaimPrice;\n        require(lastClaim < totalRoyalties, 'Nothing to claim');\n\n        uint256 amount = totalRoyalties.sub(lastClaim).mul(avatars[tokenID].tokenShare).div(100 ether);\n        payable(msg.sender).transfer(amount);\n\n        avatars[tokenID].lastClaimPrice = totalRoyalties;\n    }\n\n    function claimMulti(uint256[] memory tokenIDs) external {\n        for (uint256 i = 0; i < tokenIDs.length; i++) {\n            claim(tokenIDs[i]);\n        }\n    }\n\n    function buy() external payable returns (uint256) {\n        require(msg.value > 0.33 ether);\n        totalRoyalties += 0.0495 ether; // each purchase sends 15% of royalties to the pool\n        return mint(msg.sender);\n    }\n\n    function buyMulti(uint256 amount) external payable {\n        require(amount <= 5, 'Can only mint 5 at a time');\n        require(msg.value > uint256(0.33 ether).mul(amount));\n        totalRoyalties += uint256(0.0495 ether).mul(amount); // each purchase sends 15% of royalties to the pool\n        for (uint256 i = 0; i < amount; i++) {\n            mint(msg.sender);\n        }\n    }\n\n    function pendingRoyalties(uint256 tokenID) external view returns (uint256) {\n        uint256 lastClaim = avatars[tokenID].lastClaimPrice;\n        uint256 amount = totalRoyalties.sub(lastClaim).mul(avatars[tokenID].tokenShare).div(100 ether);\n        return amount;\n    }\n\n    receive() external payable {\n        totalRoyalties += msg.value;\n    }\n}\n",
  "sourcePath": "C:/Users/James/projects/nft-boiler-plate/blockchain/contracts/Avatars.sol",
  "compiler": {
    "name": "solc",
    "version": "0.8.7+commit.e28d00a7.Emscripten.clang"
  },
  "schemaVersion": "3.3.2",
  "updatedAt": "2021-09-24T15:40:20.972Z",
  "networkType": "ethereum",
  "devdoc": {
    "kind": "dev",
    "methods": {
      "approve(address,uint256)": {
        "details": "See {IERC721-approve}."
      },
      "balanceOf(address)": {
        "details": "See {IERC721-balanceOf}."
      },
      "getApproved(uint256)": {
        "details": "See {IERC721-getApproved}."
      },
      "isApprovedForAll(address,address)": {
        "details": "See {IERC721-isApprovedForAll}."
      },
      "name()": {
        "details": "See {IERC721Metadata-name}."
      },
      "ownerOf(uint256)": {
        "details": "See {IERC721-ownerOf}."
      },
      "safeTransferFrom(address,address,uint256)": {
        "details": "See {IERC721-safeTransferFrom}."
      },
      "safeTransferFrom(address,address,uint256,bytes)": {
        "details": "See {IERC721-safeTransferFrom}."
      },
      "setApprovalForAll(address,bool)": {
        "details": "See {IERC721-setApprovalForAll}."
      },
      "supportsInterface(bytes4)": {
        "details": "See {IERC165-supportsInterface}."
      },
      "symbol()": {
        "details": "See {IERC721Metadata-symbol}."
      },
      "tokenByIndex(uint256)": {
        "details": "See {IERC721Enumerable-tokenByIndex}."
      },
      "tokenOfOwnerByIndex(address,uint256)": {
        "details": "See {IERC721Enumerable-tokenOfOwnerByIndex}."
      },
      "tokenURI(uint256)": {
        "details": "See {IERC721Metadata-tokenURI}."
      },
      "totalSupply()": {
        "details": "See {IERC721Enumerable-totalSupply}."
      },
      "transferFrom(address,address,uint256)": {
        "details": "See {IERC721-transferFrom}."
      }
    },
    "version": 1
  },
  "userdoc": {
    "kind": "user",
    "methods": {},
    "version": 1
  }
}