{
  "contractName": "Avatars",
  "abi": [
    {
      "inputs": [
        {
          "internalType": "string",
          "name": "name",
          "type": "string"
        },
        {
          "internalType": "string",
          "name": "symbol",
          "type": "string"
        },
        {
          "internalType": "address",
          "name": "_vrfCoordinator",
          "type": "address"
        },
        {
          "internalType": "address",
          "name": "_linkToken",
          "type": "address"
        },
        {
          "internalType": "uint256",
          "name": "_baseShare",
          "type": "uint256"
        },
        {
          "internalType": "uint256",
          "name": "_minShare",
          "type": "uint256"
        },
        {
          "internalType": "uint256",
          "name": "_totalNFTs",
          "type": "uint256"
        }
      ],
      "stateMutability": "nonpayable",
      "type": "constructor"
    },
    {
      "anonymous": false,
      "inputs": [
        {
          "indexed": true,
          "internalType": "address",
          "name": "owner",
          "type": "address"
        },
        {
          "indexed": true,
          "internalType": "address",
          "name": "approved",
          "type": "address"
        },
        {
          "indexed": true,
          "internalType": "uint256",
          "name": "tokenId",
          "type": "uint256"
        }
      ],
      "name": "Approval",
      "type": "event"
    },
    {
      "anonymous": false,
      "inputs": [
        {
          "indexed": true,
          "internalType": "address",
          "name": "owner",
          "type": "address"
        },
        {
          "indexed": true,
          "internalType": "address",
          "name": "operator",
          "type": "address"
        },
        {
          "indexed": false,
          "internalType": "bool",
          "name": "approved",
          "type": "bool"
        }
      ],
      "name": "ApprovalForAll",
      "type": "event"
    },
    {
      "anonymous": false,
      "inputs": [
        {
          "indexed": false,
          "internalType": "uint256",
          "name": "tokenID",
          "type": "uint256"
        },
        {
          "indexed": false,
          "internalType": "uint256",
          "name": "share",
          "type": "uint256"
        },
        {
          "indexed": false,
          "internalType": "address",
          "name": "recipient",
          "type": "address"
        }
      ],
      "name": "MintToken",
      "type": "event"
    },
    {
      "anonymous": false,
      "inputs": [
        {
          "indexed": true,
          "internalType": "address",
          "name": "from",
          "type": "address"
        },
        {
          "indexed": true,
          "internalType": "address",
          "name": "to",
          "type": "address"
        },
        {
          "indexed": true,
          "internalType": "uint256",
          "name": "tokenId",
          "type": "uint256"
        }
      ],
      "name": "Transfer",
      "type": "event"
    },
    {
      "inputs": [
        {
          "internalType": "address",
          "name": "to",
          "type": "address"
        },
        {
          "internalType": "uint256",
          "name": "tokenId",
          "type": "uint256"
        }
      ],
      "name": "approve",
      "outputs": [],
      "stateMutability": "nonpayable",
      "type": "function"
    },
    {
      "inputs": [
        {
          "internalType": "uint256",
          "name": "",
          "type": "uint256"
        }
      ],
      "name": "avatars",
      "outputs": [
        {
          "internalType": "uint256",
          "name": "tokenShare",
          "type": "uint256"
        },
        {
          "internalType": "uint256",
          "name": "lastClaimPrice",
          "type": "uint256"
        }
      ],
      "stateMutability": "view",
      "type": "function"
    },
    {
      "inputs": [
        {
          "internalType": "address",
          "name": "owner",
          "type": "address"
        }
      ],
      "name": "balanceOf",
      "outputs": [
        {
          "internalType": "uint256",
          "name": "",
          "type": "uint256"
        }
      ],
      "stateMutability": "view",
      "type": "function"
    },
    {
      "inputs": [],
      "name": "baseShare",
      "outputs": [
        {
          "internalType": "uint256",
          "name": "",
          "type": "uint256"
        }
      ],
      "stateMutability": "view",
      "type": "function"
    },
    {
      "inputs": [
        {
          "internalType": "uint256",
          "name": "tokenId",
          "type": "uint256"
        }
      ],
      "name": "getApproved",
      "outputs": [
        {
          "internalType": "address",
          "name": "",
          "type": "address"
        }
      ],
      "stateMutability": "view",
      "type": "function"
    },
    {
      "inputs": [
        {
          "internalType": "address",
          "name": "owner",
          "type": "address"
        },
        {
          "internalType": "address",
          "name": "operator",
          "type": "address"
        }
      ],
      "name": "isApprovedForAll",
      "outputs": [
        {
          "internalType": "bool",
          "name": "",
          "type": "bool"
        }
      ],
      "stateMutability": "view",
      "type": "function"
    },
    {
      "inputs": [],
      "name": "name",
      "outputs": [
        {
          "internalType": "string",
          "name": "",
          "type": "string"
        }
      ],
      "stateMutability": "view",
      "type": "function"
    },
    {
      "inputs": [
        {
          "internalType": "uint256",
          "name": "tokenId",
          "type": "uint256"
        }
      ],
      "name": "ownerOf",
      "outputs": [
        {
          "internalType": "address",
          "name": "",
          "type": "address"
        }
      ],
      "stateMutability": "view",
      "type": "function"
    },
    {
      "inputs": [
        {
          "internalType": "bytes32",
          "name": "requestId",
          "type": "bytes32"
        },
        {
          "internalType": "uint256",
          "name": "randomness",
          "type": "uint256"
        }
      ],
      "name": "rawFulfillRandomness",
      "outputs": [],
      "stateMutability": "nonpayable",
      "type": "function"
    },
    {
      "inputs": [
        {
          "internalType": "address",
          "name": "from",
          "type": "address"
        },
        {
          "internalType": "address",
          "name": "to",
          "type": "address"
        },
        {
          "internalType": "uint256",
          "name": "tokenId",
          "type": "uint256"
        }
      ],
      "name": "safeTransferFrom",
      "outputs": [],
      "stateMutability": "nonpayable",
      "type": "function"
    },
    {
      "inputs": [
        {
          "internalType": "address",
          "name": "from",
          "type": "address"
        },
        {
          "internalType": "address",
          "name": "to",
          "type": "address"
        },
        {
          "internalType": "uint256",
          "name": "tokenId",
          "type": "uint256"
        },
        {
          "internalType": "bytes",
          "name": "_data",
          "type": "bytes"
        }
      ],
      "name": "safeTransferFrom",
      "outputs": [],
      "stateMutability": "nonpayable",
      "type": "function"
    },
    {
      "inputs": [
        {
          "internalType": "address",
          "name": "operator",
          "type": "address"
        },
        {
          "internalType": "bool",
          "name": "approved",
          "type": "bool"
        }
      ],
      "name": "setApprovalForAll",
      "outputs": [],
      "stateMutability": "nonpayable",
      "type": "function"
    },
    {
      "inputs": [
        {
          "internalType": "bytes4",
          "name": "interfaceId",
          "type": "bytes4"
        }
      ],
      "name": "supportsInterface",
      "outputs": [
        {
          "internalType": "bool",
          "name": "",
          "type": "bool"
        }
      ],
      "stateMutability": "view",
      "type": "function"
    },
    {
      "inputs": [],
      "name": "symbol",
      "outputs": [
        {
          "internalType": "string",
          "name": "",
          "type": "string"
        }
      ],
      "stateMutability": "view",
      "type": "function"
    },
    {
      "inputs": [
        {
          "internalType": "uint256",
          "name": "index",
          "type": "uint256"
        }
      ],
      "name": "tokenByIndex",
      "outputs": [
        {
          "internalType": "uint256",
          "name": "",
          "type": "uint256"
        }
      ],
      "stateMutability": "view",
      "type": "function"
    },
    {
      "inputs": [
        {
          "internalType": "address",
          "name": "owner",
          "type": "address"
        },
        {
          "internalType": "uint256",
          "name": "index",
          "type": "uint256"
        }
      ],
      "name": "tokenOfOwnerByIndex",
      "outputs": [
        {
          "internalType": "uint256",
          "name": "",
          "type": "uint256"
        }
      ],
      "stateMutability": "view",
      "type": "function"
    },
    {
      "inputs": [
        {
          "internalType": "uint256",
          "name": "tokenId",
          "type": "uint256"
        }
      ],
      "name": "tokenURI",
      "outputs": [
        {
          "internalType": "string",
          "name": "",
          "type": "string"
        }
      ],
      "stateMutability": "view",
      "type": "function"
    },
    {
      "inputs": [],
      "name": "totalRoyalties",
      "outputs": [
        {
          "internalType": "uint256",
          "name": "",
          "type": "uint256"
        }
      ],
      "stateMutability": "view",
      "type": "function"
    },
    {
      "inputs": [],
      "name": "totalSupply",
      "outputs": [
        {
          "internalType": "uint256",
          "name": "",
          "type": "uint256"
        }
      ],
      "stateMutability": "view",
      "type": "function"
    },
    {
      "inputs": [
        {
          "internalType": "address",
          "name": "from",
          "type": "address"
        },
        {
          "internalType": "address",
          "name": "to",
          "type": "address"
        },
        {
          "internalType": "uint256",
          "name": "tokenId",
          "type": "uint256"
        }
      ],
      "name": "transferFrom",
      "outputs": [],
      "stateMutability": "nonpayable",
      "type": "function"
    },
    {
      "stateMutability": "payable",
      "type": "receive"
    },
    {
      "inputs": [
        {
          "internalType": "uint256",
          "name": "tokenID",
          "type": "uint256"
        }
      ],
      "name": "claim",
      "outputs": [],
      "stateMutability": "nonpayable",
      "type": "function"
    },
    {
      "inputs": [
        {
          "internalType": "uint256[]",
          "name": "tokenIDs",
          "type": "uint256[]"
        }
      ],
      "name": "claimMulti",
      "outputs": [],
      "stateMutability": "nonpayable",
      "type": "function"
    },
    {
      "inputs": [],
      "name": "buy",
      "outputs": [
        {
          "internalType": "uint256",
          "name": "",
          "type": "uint256"
        }
      ],
      "stateMutability": "payable",
      "type": "function"
    },
    {
      "inputs": [
        {
          "internalType": "uint256",
          "name": "amount",
          "type": "uint256"
        }
      ],
      "name": "buyMulti",
      "outputs": [],
      "stateMutability": "payable",
      "type": "function"
    },
    {
      "inputs": [
        {
          "internalType": "uint256",
          "name": "tokenID",
          "type": "uint256"
        }
      ],
      "name": "pendingRoyalties",
      "outputs": [
        {
          "internalType": "uint256",
          "name": "",
          "type": "uint256"
        }
      ],
      "stateMutability": "view",
      "type": "function"
    }
  ],
  "bytecode": "0x60c06040523480156200001157600080fd5b5060405162002bbf38038062002bbf8339810160408190526200003491620009d4565b848488888160009080519060200190620000509291906200084d565b508051620000669060019060208401906200084d565b5050506001600160601b0319606092831b811660a052911b16608052600b839055600c819055600d8290556200009c33620000da565b50620000a833620000da565b50620000b433620000da565b50620000c033620000da565b50620000cc33620000da565b505050505050505062000bd3565b600080620000e760085490565b620000f490600162000ad6565b9050600c548110620001425760405162461bcd60e51b815260206004820152601260248201527113585e081cdd5c1c1b1e481c995858da195960721b60448201526064015b60405180910390fd5b6200014e8382620001cd565b600b5460408051808201825282815260006020808301828152868352600f82529184902092518355905160019092019190915581518481529081018390526001600160a01b0386168183015290517fb4a4751ef6a44118d02c7f8772a09a847f35ae4293a6c73ffc21039b806356829181900360600190a19392505050565b620001ef828260405180602001604052806000815250620001f360201b60201c565b5050565b620001ff83836200026b565b6200020e6000848484620003c1565b620002665760405162461bcd60e51b8152602060048201526032602482015260008051602062002b9f83398151915260448201527131b2b4bb32b91034b6b83632b6b2b73a32b960711b606482015260840162000139565b505050565b6001600160a01b038216620002c35760405162461bcd60e51b815260206004820181905260248201527f4552433732313a206d696e7420746f20746865207a65726f2061646472657373604482015260640162000139565b6000818152600260205260409020546001600160a01b0316156200032a5760405162461bcd60e51b815260206004820152601c60248201527f4552433732313a20746f6b656e20616c7265616479206d696e74656400000000604482015260640162000139565b62000338600083836200052a565b6001600160a01b03821660009081526003602052604081208054600192906200036390849062000ad6565b909155505060008181526002602052604080822080546001600160a01b0319166001600160a01b03861690811790915590518392907fddf252ad1be2c89b69c2b068fc378daa952ba7f163c4a11628f55a4df523b3ef908290a45050565b6000620003e2846001600160a01b03166200060660201b62000ef21760201c565b156200051e57604051630a85bd0160e11b81526001600160a01b0385169063150b7a02906200041c90339089908890889060040162000a80565b602060405180830381600087803b1580156200043757600080fd5b505af19250505080156200046a575060408051601f3d908101601f191682019092526200046791810190620009a1565b60015b62000503573d8080156200049b576040519150601f19603f3d011682016040523d82523d6000602084013e620004a0565b606091505b508051620004fb5760405162461bcd60e51b8152602060048201526032602482015260008051602062002b9f83398151915260448201527131b2b4bb32b91034b6b83632b6b2b73a32b960711b606482015260840162000139565b805181602001fd5b6001600160e01b031916630a85bd0160e11b14905062000522565b5060015b949350505050565b620005428383836200026660201b620007571760201c565b6001600160a01b038316620005a0576200059a81600880546000838152600960205260408120829055600182018355919091527ff3f7a9fe364faab93b216da50a3214154f22a0a2b415b23a84c8169e8b636ee30155565b620005c6565b816001600160a01b0316836001600160a01b031614620005c657620005c683826200060c565b6001600160a01b038216620005e0576200026681620006b9565b826001600160a01b0316826001600160a01b031614620002665762000266828262000773565b3b151590565b600060016200062684620007c460201b62000b3d1760201c565b62000632919062000af1565b60008381526007602052604090205490915080821462000686576001600160a01b03841660009081526006602090815260408083208584528252808320548484528184208190558352600790915290208190555b5060009182526007602090815260408084208490556001600160a01b039094168352600681528383209183525290812055565b600854600090620006cd9060019062000af1565b60008381526009602052604081205460088054939450909284908110620006f857620006f862000ba7565b9060005260206000200154905080600883815481106200071c576200071c62000ba7565b600091825260208083209091019290925582815260099091526040808220849055858252812055600880548062000757576200075762000b91565b6001900381819060005260206000200160009055905550505050565b60006200078b83620007c460201b62000b3d1760201c565b6001600160a01b039093166000908152600660209081526040808320868452825280832085905593825260079052919091209190915550565b60006001600160a01b038216620008315760405162461bcd60e51b815260206004820152602a60248201527f4552433732313a2062616c616e636520717565727920666f7220746865207a65604482015269726f206164647265737360b01b606482015260840162000139565b506001600160a01b031660009081526003602052604090205490565b8280546200085b9062000b3e565b90600052602060002090601f0160209004810192826200087f5760008555620008ca565b82601f106200089a57805160ff1916838001178555620008ca565b82800160010185558215620008ca579182015b82811115620008ca578251825591602001919060010190620008ad565b50620008d8929150620008dc565b5090565b5b80821115620008d85760008155600101620008dd565b80516001600160a01b03811681146200090b57600080fd5b919050565b600082601f8301126200092257600080fd5b81516001600160401b03808211156200093f576200093f62000bbd565b604051601f8301601f19908116603f011681019082821181831017156200096a576200096a62000bbd565b816040528381528660208588010111156200098457600080fd5b6200099784602083016020890162000b0b565b9695505050505050565b600060208284031215620009b457600080fd5b81516001600160e01b031981168114620009cd57600080fd5b9392505050565b600080600080600080600060e0888a031215620009f057600080fd5b87516001600160401b038082111562000a0857600080fd5b62000a168b838c0162000910565b985060208a015191508082111562000a2d57600080fd5b5062000a3c8a828b0162000910565b96505062000a4d60408901620008f3565b945062000a5d60608901620008f3565b93506080880151925060a0880151915060c0880151905092959891949750929550565b600060018060a01b03808716835280861660208401525083604083015260806060830152825180608084015262000abf8160a085016020870162000b0b565b601f01601f19169190910160a00195945050505050565b6000821982111562000aec5762000aec62000b7b565b500190565b60008282101562000b065762000b0662000b7b565b500390565b60005b8381101562000b2857818101518382015260200162000b0e565b8381111562000b38576000848401525b50505050565b600181811c9082168062000b5357607f821691505b6020821081141562000b7557634e487b7160e01b600052602260045260246000fd5b50919050565b634e487b7160e01b600052601160045260246000fd5b634e487b7160e01b600052603160045260246000fd5b634e487b7160e01b600052603260045260246000fd5b634e487b7160e01b600052604160045260246000fd5b60805160601c60a05160601c611fa362000bfc6000396000610bcf015260005050611fa36000f3fe60806040526004361061016a5760003560e01c80636352211e116100d1578063a22cb4651161008a578063c87b56dd11610064578063c87b56dd14610446578063e2fb107014610466578063e4717f6a14610486578063e985e9c5146104a657600080fd5b8063a22cb465146103fe578063a6f2ae3a1461041e578063b88d4fde1461042657600080fd5b80636352211e1461032a57806370a082311461034a578063834d5fac1461036a57806386d02608146103b357806394985ddd146103c957806395d89b41146103e957600080fd5b806323b872dd1161012357806323b872dd146102775780632f745c5914610297578063379607f5146102b757806342842e0e146102d7578063429c8eb9146102f75780634f6ccce71461030a57600080fd5b806301ffc9a71461018d57806306fdde03146101c2578063081812fc146101e457806309110a2d1461021c578063095ea7b31461024057806318160ddd1461026257600080fd5b366101885734600e60008282546101819190611dee565b9091555050005b600080fd5b34801561019957600080fd5b506101ad6101a8366004611c1c565b6104ef565b60405190151581526020015b60405180910390f35b3480156101ce57600080fd5b506101d761051a565b6040516101b99190611d07565b3480156101f057600080fd5b506102046101ff366004611c56565b6105ac565b6040516001600160a01b0390911681526020016101b9565b34801561022857600080fd5b50610232600b5481565b6040519081526020016101b9565b34801561024c57600080fd5b5061026061025b366004611b23565b610646565b005b34801561026e57600080fd5b50600854610232565b34801561028357600080fd5b506102606102923660046119eb565b61075c565b3480156102a357600080fd5b506102326102b2366004611b23565b61078d565b3480156102c357600080fd5b506102606102d2366004611c56565b610823565b3480156102e357600080fd5b506102606102f23660046119eb565b610957565b610260610305366004611c56565b610972565b34801561031657600080fd5b50610232610325366004611c56565b610a33565b34801561033657600080fd5b50610204610345366004611c56565b610ac6565b34801561035657600080fd5b5061023261036536600461199d565b610b3d565b34801561037657600080fd5b5061039e610385366004611c56565b600f602052600090815260409020805460019091015482565b604080519283526020830191909152016101b9565b3480156103bf57600080fd5b50610232600e5481565b3480156103d557600080fd5b506102606103e4366004611bfa565b610bc4565b3480156103f557600080fd5b506101d7610c3c565b34801561040a57600080fd5b50610260610419366004611ae7565b610c4b565b610232610d10565b34801561043257600080fd5b50610260610441366004611a27565b610d53565b34801561045257600080fd5b506101d7610461366004611c56565b610d8b565b34801561047257600080fd5b50610232610481366004611c56565b610e73565b34801561049257600080fd5b506102606104a1366004611b4d565b610eb2565b3480156104b257600080fd5b506101ad6104c13660046119b8565b6001600160a01b03918216600090815260056020908152604080832093909416825291909152205460ff1690565b60006001600160e01b0319821663780e9d6360e01b1480610514575061051482610ef8565b92915050565b60606000805461052990611e7c565b80601f016020809104026020016040519081016040528092919081815260200182805461055590611e7c565b80156105a25780601f10610577576101008083540402835291602001916105a2565b820191906000526020600020905b81548152906001019060200180831161058557829003601f168201915b5050505050905090565b6000818152600260205260408120546001600160a01b031661062a5760405162461bcd60e51b815260206004820152602c60248201527f4552433732313a20617070726f76656420717565727920666f72206e6f6e657860448201526b34b9ba32b73a103a37b5b2b760a11b60648201526084015b60405180910390fd5b506000908152600460205260409020546001600160a01b031690565b600061065182610ac6565b9050806001600160a01b0316836001600160a01b031614156106bf5760405162461bcd60e51b815260206004820152602160248201527f4552433732313a20617070726f76616c20746f2063757272656e74206f776e656044820152603960f91b6064820152608401610621565b336001600160a01b03821614806106db57506106db81336104c1565b61074d5760405162461bcd60e51b815260206004820152603860248201527f4552433732313a20617070726f76652063616c6c6572206973206e6f74206f7760448201527f6e6572206e6f7220617070726f76656420666f7220616c6c00000000000000006064820152608401610621565b6107578383610f48565b505050565b6107663382610fb6565b6107825760405162461bcd60e51b815260040161062190611d6c565b6107578383836110a9565b600061079883610b3d565b82106107fa5760405162461bcd60e51b815260206004820152602b60248201527f455243373231456e756d657261626c653a206f776e657220696e646578206f7560448201526a74206f6620626f756e647360a81b6064820152608401610621565b506001600160a01b03919091166000908152600660209081526040808320938352929052205490565b3361082d82610ac6565b6001600160a01b0316146108775760405162461bcd60e51b815260206004820152601160248201527026bab9ba103132903a34329037bbb732b960791b6044820152606401610621565b6000818152600f6020526040902060010154600e5481106108cd5760405162461bcd60e51b815260206004820152601060248201526f4e6f7468696e6720746f20636c61696d60801b6044820152606401610621565b6000828152600f6020526040812054600e546109099168056bc75e2d631000009161090391906108fd9087611254565b90611260565b9061126c565b604051909150339082156108fc029083906000818181858888f19350505050158015610939573d6000803e3d6000fd5b5050600e546000928352600f60205260409092206001019190915550565b61075783838360405180602001604052806000815250610d53565b60058111156109c35760405162461bcd60e51b815260206004820152601960248201527f43616e206f6e6c79206d696e74203520617420612074696d65000000000000006044820152606401610621565b6109d5670494654067e1000082611260565b34116109e057600080fd5b6109f166afdbfcdc61c00082611260565b600e6000828254610a029190611dee565b90915550600090505b81811015610a2f57610a1c33611278565b5080610a2781611eb7565b915050610a0b565b5050565b6000610a3e60085490565b8210610aa15760405162461bcd60e51b815260206004820152602c60248201527f455243373231456e756d657261626c653a20676c6f62616c20696e646578206f60448201526b7574206f6620626f756e647360a01b6064820152608401610621565b60088281548110610ab457610ab4611f28565b90600052602060002001549050919050565b6000818152600260205260408120546001600160a01b0316806105145760405162461bcd60e51b815260206004820152602960248201527f4552433732313a206f776e657220717565727920666f72206e6f6e657869737460448201526832b73a103a37b5b2b760b91b6064820152608401610621565b60006001600160a01b038216610ba85760405162461bcd60e51b815260206004820152602a60248201527f4552433732313a2062616c616e636520717565727920666f7220746865207a65604482015269726f206164647265737360b01b6064820152608401610621565b506001600160a01b031660009081526003602052604090205490565b336001600160a01b037f00000000000000000000000000000000000000000000000000000000000000001614610a2f5760405162461bcd60e51b815260206004820152601f60248201527f4f6e6c7920565246436f6f7264696e61746f722063616e2066756c66696c6c006044820152606401610621565b60606001805461052990611e7c565b6001600160a01b038216331415610ca45760405162461bcd60e51b815260206004820152601960248201527f4552433732313a20617070726f766520746f2063616c6c6572000000000000006044820152606401610621565b3360008181526005602090815260408083206001600160a01b03871680855290835292819020805460ff191686151590811790915590519081529192917f17307eab39ab6107e8899845ad3d59bd9653f200f220920489ca2b5937696c31910160405180910390a35050565b6000670494654067e100003411610d2657600080fd5b66afdbfcdc61c000600e6000828254610d3f9190611dee565b90915550610d4e905033611278565b905090565b610d5d3383610fb6565b610d795760405162461bcd60e51b815260040161062190611d6c565b610d8584848484611360565b50505050565b6000818152600260205260409020546060906001600160a01b0316610e0a5760405162461bcd60e51b815260206004820152602f60248201527f4552433732314d657461646174613a2055524920717565727920666f72206e6f60448201526e3732bc34b9ba32b73a103a37b5b2b760891b6064820152608401610621565b6000610e2160408051602081019091526000815290565b90506000815111610e415760405180602001604052806000815250610e6c565b80610e4b84611393565b604051602001610e5c929190611c9b565b6040516020818303038152906040525b9392505050565b6000818152600f6020526040812060018101549054600e548391610eaa9168056bc75e2d6310000091610903916108fd9087611254565b949350505050565b60005b8151811015610a2f57610ee0828281518110610ed357610ed3611f28565b6020026020010151610823565b80610eea81611eb7565b915050610eb5565b3b151590565b60006001600160e01b031982166380ac58cd60e01b1480610f2957506001600160e01b03198216635b5e139f60e01b145b8061051457506301ffc9a760e01b6001600160e01b0319831614610514565b600081815260046020526040902080546001600160a01b0319166001600160a01b0384169081179091558190610f7d82610ac6565b6001600160a01b03167f8c5be1e5ebec7d5bd14f71427d1e84f3dd0314c0f7b2291e5b200ac8c7c3b92560405160405180910390a45050565b6000818152600260205260408120546001600160a01b031661102f5760405162461bcd60e51b815260206004820152602c60248201527f4552433732313a206f70657261746f7220717565727920666f72206e6f6e657860448201526b34b9ba32b73a103a37b5b2b760a11b6064820152608401610621565b600061103a83610ac6565b9050806001600160a01b0316846001600160a01b031614806110755750836001600160a01b031661106a846105ac565b6001600160a01b0316145b80610eaa57506001600160a01b0380821660009081526005602090815260408083209388168352929052205460ff16610eaa565b826001600160a01b03166110bc82610ac6565b6001600160a01b0316146111245760405162461bcd60e51b815260206004820152602960248201527f4552433732313a207472616e73666572206f6620746f6b656e2074686174206960448201526839903737ba1037bbb760b91b6064820152608401610621565b6001600160a01b0382166111865760405162461bcd60e51b8152602060048201526024808201527f4552433732313a207472616e7366657220746f20746865207a65726f206164646044820152637265737360e01b6064820152608401610621565b611191838383611491565b61119c600082610f48565b6001600160a01b03831660009081526003602052604081208054600192906111c5908490611e39565b90915550506001600160a01b03821660009081526003602052604081208054600192906111f3908490611dee565b909155505060008181526002602052604080822080546001600160a01b0319166001600160a01b0386811691821790925591518493918716917fddf252ad1be2c89b69c2b068fc378daa952ba7f163c4a11628f55a4df523b3ef91a4505050565b6000610e6c8284611e39565b6000610e6c8284611e1a565b6000610e6c8284611e06565b60008061128460085490565b61128f906001611dee565b9050600c5481106112d75760405162461bcd60e51b815260206004820152601260248201527113585e081cdd5c1c1b1e481c995858da195960721b6044820152606401610621565b6112e18382611549565b600b5460408051808201825282815260006020808301828152868352600f82529184902092518355905160019092019190915581518481529081018390526001600160a01b0386168183015290517fb4a4751ef6a44118d02c7f8772a09a847f35ae4293a6c73ffc21039b806356829181900360600190a19392505050565b61136b8484846110a9565b61137784848484611563565b610d855760405162461bcd60e51b815260040161062190611d1a565b6060816113b75750506040805180820190915260018152600360fc1b602082015290565b8160005b81156113e157806113cb81611eb7565b91506113da9050600a83611e06565b91506113bb565b60008167ffffffffffffffff8111156113fc576113fc611f3e565b6040519080825280601f01601f191660200182016040528015611426576020820181803683370190505b5090505b8415610eaa5761143b600183611e39565b9150611448600a86611ed2565b611453906030611dee565b60f81b81838151811061146857611468611f28565b60200101906001600160f81b031916908160001a90535061148a600a86611e06565b945061142a565b6001600160a01b0383166114ec576114e781600880546000838152600960205260408120829055600182018355919091527ff3f7a9fe364faab93b216da50a3214154f22a0a2b415b23a84c8169e8b636ee30155565b61150f565b816001600160a01b0316836001600160a01b03161461150f5761150f8382611670565b6001600160a01b038216611526576107578161170d565b826001600160a01b0316826001600160a01b0316146107575761075782826117bc565b610a2f828260405180602001604052806000815250611800565b60006001600160a01b0384163b1561166557604051630a85bd0160e11b81526001600160a01b0385169063150b7a02906115a7903390899088908890600401611cca565b602060405180830381600087803b1580156115c157600080fd5b505af19250505080156115f1575060408051601f3d908101601f191682019092526115ee91810190611c39565b60015b61164b573d80801561161f576040519150601f19603f3d011682016040523d82523d6000602084013e611624565b606091505b5080516116435760405162461bcd60e51b815260040161062190611d1a565b805181602001fd5b6001600160e01b031916630a85bd0160e11b149050610eaa565b506001949350505050565b6000600161167d84610b3d565b6116879190611e39565b6000838152600760205260409020549091508082146116da576001600160a01b03841660009081526006602090815260408083208584528252808320548484528184208190558352600790915290208190555b5060009182526007602090815260408084208490556001600160a01b039094168352600681528383209183525290812055565b60085460009061171f90600190611e39565b6000838152600960205260408120546008805493945090928490811061174757611747611f28565b90600052602060002001549050806008838154811061176857611768611f28565b60009182526020808320909101929092558281526009909152604080822084905585825281205560088054806117a0576117a0611f12565b6001900381819060005260206000200160009055905550505050565b60006117c783610b3d565b6001600160a01b039093166000908152600660209081526040808320868452825280832085905593825260079052919091209190915550565b61180a8383611833565b6118176000848484611563565b6107575760405162461bcd60e51b815260040161062190611d1a565b6001600160a01b0382166118895760405162461bcd60e51b815260206004820181905260248201527f4552433732313a206d696e7420746f20746865207a65726f20616464726573736044820152606401610621565b6000818152600260205260409020546001600160a01b0316156118ee5760405162461bcd60e51b815260206004820152601c60248201527f4552433732313a20746f6b656e20616c7265616479206d696e746564000000006044820152606401610621565b6118fa60008383611491565b6001600160a01b0382166000908152600360205260408120805460019290611923908490611dee565b909155505060008181526002602052604080822080546001600160a01b0319166001600160a01b03861690811790915590518392907fddf252ad1be2c89b69c2b068fc378daa952ba7f163c4a11628f55a4df523b3ef908290a45050565b80356001600160a01b038116811461199857600080fd5b919050565b6000602082840312156119af57600080fd5b610e6c82611981565b600080604083850312156119cb57600080fd5b6119d483611981565b91506119e260208401611981565b90509250929050565b600080600060608486031215611a0057600080fd5b611a0984611981565b9250611a1760208501611981565b9150604084013590509250925092565b60008060008060808587031215611a3d57600080fd5b611a4685611981565b93506020611a55818701611981565b935060408601359250606086013567ffffffffffffffff80821115611a7957600080fd5b818801915088601f830112611a8d57600080fd5b813581811115611a9f57611a9f611f3e565b611ab1601f8201601f19168501611dbd565b91508082528984828501011115611ac757600080fd5b808484018584013760008482840101525080935050505092959194509250565b60008060408385031215611afa57600080fd5b611b0383611981565b915060208301358015158114611b1857600080fd5b809150509250929050565b60008060408385031215611b3657600080fd5b611b3f83611981565b946020939093013593505050565b60006020808385031215611b6057600080fd5b823567ffffffffffffffff80821115611b7857600080fd5b818501915085601f830112611b8c57600080fd5b813581811115611b9e57611b9e611f3e565b8060051b9150611baf848301611dbd565b8181528481019084860184860187018a1015611bca57600080fd5b600095505b83861015611bed578035835260019590950194918601918601611bcf565b5098975050505050505050565b60008060408385031215611c0d57600080fd5b50508035926020909101359150565b600060208284031215611c2e57600080fd5b8135610e6c81611f54565b600060208284031215611c4b57600080fd5b8151610e6c81611f54565b600060208284031215611c6857600080fd5b5035919050565b60008151808452611c87816020860160208601611e50565b601f01601f19169290920160200192915050565b60008351611cad818460208801611e50565b835190830190611cc1818360208801611e50565b01949350505050565b6001600160a01b0385811682528416602082015260408101839052608060608201819052600090611cfd90830184611c6f565b9695505050505050565b602081526000610e6c6020830184611c6f565b60208082526032908201527f4552433732313a207472616e7366657220746f206e6f6e20455243373231526560408201527131b2b4bb32b91034b6b83632b6b2b73a32b960711b606082015260800190565b60208082526031908201527f4552433732313a207472616e736665722063616c6c6572206973206e6f74206f6040820152701ddb995c881b9bdc88185c1c1c9bdd9959607a1b606082015260800190565b604051601f8201601f1916810167ffffffffffffffff81118282101715611de657611de6611f3e565b604052919050565b60008219821115611e0157611e01611ee6565b500190565b600082611e1557611e15611efc565b500490565b6000816000190483118215151615611e3457611e34611ee6565b500290565b600082821015611e4b57611e4b611ee6565b500390565b60005b83811015611e6b578181015183820152602001611e53565b83811115610d855750506000910152565b600181811c90821680611e9057607f821691505b60208210811415611eb157634e487b7160e01b600052602260045260246000fd5b50919050565b6000600019821415611ecb57611ecb611ee6565b5060010190565b600082611ee157611ee1611efc565b500690565b634e487b7160e01b600052601160045260246000fd5b634e487b7160e01b600052601260045260246000fd5b634e487b7160e01b600052603160045260246000fd5b634e487b7160e01b600052603260045260246000fd5b634e487b7160e01b600052604160045260246000fd5b6001600160e01b031981168114611f6a57600080fd5b5056fea264697066735822122087e107879365987ae99d0a1232869f811e164124e4a436e9617329e0eea2e98664736f6c634300080700334552433732313a207472616e7366657220746f206e6f6e204552433732315265",
  "immutableReferences": {
    "502": [
      {
        "length": 32,
        "start": 3023
      }
    ]
  },
  "source": "pragma solidity 0.8.7;\n\nimport '@openzeppelin/contracts/token/ERC721/extensions/ERC721Enumerable.sol';\nimport '@openzeppelin/contracts/utils/math/SafeMath.sol';\nimport \"@chainlink/contracts/src/v0.8/VRFConsumerBase.sol\";\n\ncontract Avatars is ERC721Enumerable, VRFConsumerBase {\n    using SafeMath for uint256;\n    uint256 public baseShare;\n    uint256 private totalNFTs;\n    uint256 private minShare;\n    uint256 public totalRoyalties;\n    struct Avatar {\n        uint256 tokenShare;\n        uint256 lastClaimPrice;\n    }\n    mapping(uint256 => Avatar) public avatars;\n\n    event MintToken(uint256 tokenID, uint256 share, address recipient);\n\n    constructor(\n        string memory name,\n        string memory symbol,\n        address _vrfCoordinator,\n        address _linkToken,\n        uint256 _baseShare,\n        uint256 _minShare,\n        uint256 _totalNFTs\n    ) public\n    ERC721(name, symbol)\n    VRFConsumerBase(_vrfCoordinator,_linkToken)\n    {\n        baseShare = _baseShare;\n        totalNFTs = _totalNFTs;\n        minShare = _minShare;\n        mint(msg.sender);\n        mint(msg.sender);\n        mint(msg.sender);\n        mint(msg.sender);\n        mint(msg.sender);\n    }\n\n    function mint(address _recipient) internal returns (uint256) {\n        uint256 newId = totalSupply() + 1;\n        require(newId < totalNFTs, 'Max supply reached');\n        _safeMint(_recipient, newId);\n        // uint256 percentage = newId.mul(1 ether).mul(100).div(totalNFTs);\n        // uint256 deductable = baseShare.mul(percentage).div(100 ether);\n        // uint256 share = baseShare.sub(deductable);\n        uint256 share = baseShare;\n        avatars[newId] = Avatar({tokenShare: share, lastClaimPrice: 0});\n        emit MintToken(newId, share, _recipient);\n        return share;\n    }\n\n    function claim(uint256 tokenID) public {\n        require(ownerOf(tokenID) == msg.sender, 'Must be the owner');\n\n        uint256 lastClaim = avatars[tokenID].lastClaimPrice;\n        require(lastClaim < totalRoyalties, 'Nothing to claim');\n\n        uint256 amount = totalRoyalties.sub(lastClaim).mul(avatars[tokenID].tokenShare).div(100 ether);\n        payable(msg.sender).transfer(amount);\n\n        avatars[tokenID].lastClaimPrice = totalRoyalties;\n    }\n\n    function claimMulti(uint256[] memory tokenIDs) external {\n        for (uint256 i = 0; i < tokenIDs.length; i++) {\n            claim(tokenIDs[i]);\n        }\n    }\n\n    function buy() external payable returns (uint256) {\n        require(msg.value > 0.33 ether);\n        totalRoyalties += 0.0495 ether; // each purchase sends 15% of royalties to the pool\n        return mint(msg.sender);\n    }\n\n    function buyMulti(uint256 amount) external payable {\n        require(amount <= 5, 'Can only mint 5 at a time');\n        require(msg.value > uint256(0.33 ether).mul(amount));\n        totalRoyalties += uint256(0.0495 ether).mul(amount); // each purchase sends 15% of royalties to the pool\n        for (uint256 i = 0; i < amount; i++) {\n            mint(msg.sender);\n        }\n    }\n\n    function pendingRoyalties(uint256 tokenID) external view returns (uint256) {\n        uint256 lastClaim = avatars[tokenID].lastClaimPrice;\n        uint256 amount = totalRoyalties.sub(lastClaim).mul(avatars[tokenID].tokenShare).div(100 ether);\n        return amount;\n    }\n\n    receive() external payable {\n        totalRoyalties += msg.value;\n    }\n\n    /**\n    * Callback function used by VRF Coordinator\n    */\n    function fulfillRandomness(bytes32 requestId, uint256 randomness) internal override {\n        uint256 randomResult = randomness;\n    }\n}\n",
  "sourcePath": "C:/Users/James/projects/nft-avatar-boilerplate/blockchain/contracts/Avatars.sol",
  "compiler": {
    "name": "solc",
    "version": "0.8.7+commit.e28d00a7.Emscripten.clang"
  },
  "schemaVersion": "3.3.2",
  "updatedAt": "2021-09-04T15:50:37.627Z",
  "devdoc": {
    "kind": "dev",
    "methods": {
      "approve(address,uint256)": {
        "details": "See {IERC721-approve}."
      },
      "balanceOf(address)": {
        "details": "See {IERC721-balanceOf}."
      },
      "getApproved(uint256)": {
        "details": "See {IERC721-getApproved}."
      },
      "isApprovedForAll(address,address)": {
        "details": "See {IERC721-isApprovedForAll}."
      },
      "name()": {
        "details": "See {IERC721Metadata-name}."
      },
      "ownerOf(uint256)": {
        "details": "See {IERC721-ownerOf}."
      },
      "safeTransferFrom(address,address,uint256)": {
        "details": "See {IERC721-safeTransferFrom}."
      },
      "safeTransferFrom(address,address,uint256,bytes)": {
        "details": "See {IERC721-safeTransferFrom}."
      },
      "setApprovalForAll(address,bool)": {
        "details": "See {IERC721-setApprovalForAll}."
      },
      "supportsInterface(bytes4)": {
        "details": "See {IERC165-supportsInterface}."
      },
      "symbol()": {
        "details": "See {IERC721Metadata-symbol}."
      },
      "tokenByIndex(uint256)": {
        "details": "See {IERC721Enumerable-tokenByIndex}."
      },
      "tokenOfOwnerByIndex(address,uint256)": {
        "details": "See {IERC721Enumerable-tokenOfOwnerByIndex}."
      },
      "tokenURI(uint256)": {
        "details": "See {IERC721Metadata-tokenURI}."
      },
      "totalSupply()": {
        "details": "See {IERC721Enumerable-totalSupply}."
      },
      "transferFrom(address,address,uint256)": {
        "details": "See {IERC721-transferFrom}."
      }
    },
    "version": 1
  },
  "userdoc": {
    "kind": "user",
    "methods": {},
    "version": 1
  }
}