{
  "contractName": "Migrations",
  "abi": [
    {
      "inputs": [],
      "stateMutability": "nonpayable",
      "type": "constructor"
    },
    {
      "inputs": [],
      "name": "lastCompletedMigration",
      "outputs": [
        {
          "internalType": "uint256",
          "name": "",
          "type": "uint256"
        }
      ],
      "stateMutability": "view",
      "type": "function"
    },
    {
      "inputs": [],
      "name": "owner",
      "outputs": [
        {
          "internalType": "address",
          "name": "",
          "type": "address"
        }
      ],
      "stateMutability": "view",
      "type": "function"
    },
    {
      "inputs": [
        {
          "internalType": "uint256",
          "name": "completed",
          "type": "uint256"
        }
      ],
      "name": "setCompleted",
      "outputs": [],
      "stateMutability": "nonpayable",
      "type": "function"
    },
    {
      "inputs": [
        {
          "internalType": "address",
          "name": "newAddress",
          "type": "address"
        }
      ],
      "name": "upgrade",
      "outputs": [],
      "stateMutability": "nonpayable",
      "type": "function"
    }
  ],
  "bytecode": "0x608060405234801561001057600080fd5b50600080546001600160a01b031916331790556101d4806100326000396000f3fe608060405234801561001057600080fd5b506004361061004c5760003560e01c80630900f010146100515780638da5cb5b14610066578063fbdbad3c14610096578063fdacd576146100ad575b600080fd5b61006461005f366004610155565b6100c0565b005b600054610079906001600160a01b031681565b6040516001600160a01b0390911681526020015b60405180910390f35b61009f60015481565b60405190815260200161008d565b6100646100bb366004610185565b61013d565b6000546001600160a01b031633141561013a57600154604051637ed66abb60e11b815282916001600160a01b0383169163fdacd576916101069160040190815260200190565b600060405180830381600087803b15801561012057600080fd5b505af1158015610134573d6000803e3d6000fd5b50505050505b50565b6000546001600160a01b031633141561013a57600155565b60006020828403121561016757600080fd5b81356001600160a01b038116811461017e57600080fd5b9392505050565b60006020828403121561019757600080fd5b503591905056fea2646970667358221220bf4c653944f3071c0869f5597b0e433443bf59892bd430bbbcf2b7b0ef93ebc464736f6c63430008070033",
  "immutableReferences": {},
  "source": "// SPDX-License-Identifier: MIT\n\npragma solidity 0.8.7;\n\ncontract Migrations {\n    address public owner;\n    uint256 public lastCompletedMigration;\n\n    constructor() public {\n        owner = msg.sender;\n    }\n\n    modifier restricted() {\n        if (msg.sender == owner) _;\n    }\n\n    function setCompleted(uint256 completed) public restricted {\n        lastCompletedMigration = completed;\n    }\n\n    function upgrade(address newAddress) public restricted {\n        Migrations upgraded = Migrations(newAddress);\n        upgraded.setCompleted(lastCompletedMigration);\n    }\n}\n",
  "sourcePath": "C:/Users/James/projects/nft-avatar-boilerplate/blockchain/contracts/Migrations.sol",
  "compiler": {
    "name": "solc",
    "version": "0.8.7+commit.e28d00a7.Emscripten.clang"
  },
  "schemaVersion": "3.3.2",
  "updatedAt": "2021-09-04T15:50:37.641Z",
  "devdoc": {
    "kind": "dev",
    "methods": {},
    "version": 1
  },
  "userdoc": {
    "kind": "user",
    "methods": {},
    "version": 1
  }
}